S011000043414E2D52533233322E73726563D8
S11300000C944A000C9469000C9469000C946900E7
S11300100C9469000C9469000C9469000C946900B8
S11300200C9469000C9475030C9469000C94690099
S11300300C9469000C9469000C9469000C94690098
S11300400C9469000C9469000C94D2010C9469001E
S11300500C9469000C940F010C9469000C946900D1
S11300600C9469000C9469000C9469000C94690068
S11300700C9469000C9469000C9469000C94690058
S11300800C9469000C9469000C9469000C94690048
S11300900C94690011241FBECFEFD0E1DEBFCDBFA9
S11300A011E0A0E0B1E0E6E2FFE000E00BBF02C037
S11300B007900D92A839B107D9F725E0A8E9B1E076
S11300C001C01D92A438B207E1F70E94BC000C9451
S11300D091070C940000E1ECF0E08081806880835B
S11300E089EA92E09093A7028093A60290939D01DF
S11300F080939C010895F89480E8809361001092A5
S113010061000E94160340E052EC61E070E083E07D
S11301100E94C6040E946B000E94260385E00E9490
S11301204B01882329F00E94BF01789481E008954F
S113013089E48F9384E58F930E9419050F900F90A3
S113014080E00895F894E091A602F091A7028091CE
S1130150C60080838091A6029091A70223E0803795
S1130160920710F4019602C089EA92E09093A702E4
S11301708093A60278940895CF93DF930E947B0026
S1130180882309F447C080E091E09F938F930E94F5
S11301901905C4E3D1E0DF93CF930E94190586E6E5
S11301A091E09F938F930E941905DF93CF930E9450
S11301B0190582E091E09F938F930E941905109294
S11301C0A2021092A3021092A4021092A50210920D
S11301D09B0110929A01E9E8F4E08DB79EB70A9664
S11301E00FB6F8949EBF0FBE8DBF1192119211925B
S11301F0119294E0E13BF907C1F70E940E030E94BB
S1130200FC020E94AD02892B11F00E9404030E949B
S11302101C03FDCF80E090E0DF91CF9108951F9201
S11302200F920FB60F9211240BB60F922F933F9398
S11302304F935F936F937F938F939F93AF93BF93EA
S1130240EF93FF930E94A200FF91EF91BF91AF91B2
S11302509F918F917F916F915F914F913F912F91DA
S11302600F900BBE0F900FBE0F901F901895611545
S113027071058105910559F020E060FD06C0969551
S11302808795779567952F5FF8CF2F3010F08FEF14
S11302900895822F0895559A5698883008F06BC0B7
S11302A08091D80081608093D8001092D800109279
S11302B0E0001092E1001092DA001092DB0010923C
S11302C0DD001092DC001092DF001092DE008091BD
S11302D0ED00877F8093ED0080E0982F9295907FCA
S11302E09093ED001092F3001092F2001092F1003E
S11302F01092F0001092F7001092F6001092F500A0
S11303001092F4001092EE001092EF008F5F8F3085
S113031021F78EE08093E2008CE28093E30087E390
S11303208093E40080E18093ED001092EE0080E879
S11303308093EF001092F3001092F2001092F700F5
S11303401092F60080E28093ED001092EE0010927D
S1130350F3001092F20080EB8093DB0086E0809340
S1130360DE008091D80082608093D8008091D9000B
S113037082FFFCCF02C080E0089581E0089580E10F
S11303808093ED001092F0001092F1001092F200B0
S11303901092F3001092F7001092F60080E8809318
S11303A0EF0008951F920F920FB60F9211240BB60F
S11303B00F921F932F933F934F935F936F937F936A
S11303C08F939F93AF93BF93EF93FF93CF93DF9359
S11303D000D000D0CDB7DEB71091ED006091E00001
S11303E08091E10070E0782B882777FD8095982F25
S11303F00E9437018F3F09F490C08295807F8093DB
S1130400ED008091EE0086FF06C08091EE008F7BA8
S11304108093EE0080C08091EE0085FF7CC08091C7
S11304209801833120F48F5F8093980102C0109269
S11304309801E09198012EE0E29FF0011124EF5819
S1130440FC4F8091EF0084FF2EC08091F3008C83D9
S11304508091F2009091F20093FB992790F9807FAC
S1130460890F8B838091F1009091F2008695869597
S1130470869520E2929F800D11248A838091F0005A
S11304809091F10086958695869520E2929F800D45
S11304901124898389819A81AB81BC81B283A18330
S11304A09483838314C0128211828091F30090E0BC
S11304B0982F8827928381832091F200207E822BBB
S11304C075E0969587957A95E1F7928381832091DB
S11304D0EF002F70258380E090E0DF01A80FB91FA3
S11304E016961C92019688309105B9F780E090E049
S11304F0821748F43091FA00DF01A80FB91F16964D
S11305003C930196F5CF8091EE008F7D8093EE00B1
S113051080E88093EF001093ED000F900F900F9000
S11305200F90DF91CF91FF91EF91BF91AF919F9188
S11305308F917F916F915F914F913F912F911F9177
S11305400F900BBE0F900FBE0F901F9018950E9A30
S1130550169808950E9A0E9A08950E94A7028FEC99
S113056097E00197F1F700C000000E94AA0290EA08
S11305709A95F1F780B187E597E00197F1F700C00C
S1130580000080B18074089592B189130AC092B1B9
S113059021E030E0062E01C0220F0A94EAF7922BE4
S11305A092B994B389130AC024B381E090E0062E73
S11305B001C0880F0A94EAF7282B24BB089592B14E
S11305C089130BC092B121E030E0062E01C0220F46
S11305D00A94EAF72095292322B994B389130BC00E
S11305E024B381E090E0062E01C0880F0A94EAF754
S11305F08095822384BB089582B167E00C94C40281
S113060082B167E00C94DF02179B04C082B167E0FB
S11306100C94DF0282B167E00C94C40284B362E0FC
S11306200C94C40284B362E00C94DF020F9A9A9A89
S11306300E9400030C941203A29B04C084B362E0E2
S11306400C94DF0284B362E00C94C402F894109218
S1130650B0001092B2001092B300809170008E7FAF
S113066080937000809170008D7F809370008091E2
S1130670B0008F7C8093B0008091B000877B88604D
S11306808093B0008091B600877E8093B6008CE79B
S11306908093B3008091B000887F85608093B00020
S11306A08091B6008770E1F7B99A809170008260FA
S11306B08093700010927E0510927F051092800541
S11306C01092810510927D0510927C05109283058D
S11306D0109279051092820510927B0510927A058A
S11306E081E080939901789408951F920F920FB638
S11306F00F9211242F938F939F93AF93BF93809165
S11307007E0590917F05A0918005B09181050196A9
S1130710A11DB11D80937E0590937F05A093800554
S1130720B093810580917C0590917D05019690930D
S11307307D0580937C0580917C0590917D05883EA4
S1130740934069F510927D0510927C058091830594
S11307508F5F8093830581E080937A058091830580
S11307608C33E9F410928305809179058F5F80932F
S11307707905809179058C3391F4109279058091F3
S113078082058F5F8093820580918205883139F4D8
S11307901092820580917B058F5F80937B05BF91CA
S11307A0AF919F918F912F910F900FBE0F901F903B
S11307B018958CB12CB19CB1822381708923089542
S11307C0CF92DF92EF92FF920F931F93CF93DF9319
S11307D06115710581059105C1F09B01AC0173E0C0
S11307E0220F331F441F551F7A95D1F760E078E438
S11307F088EE91E00E9450072F5F3F4F4F4F5F4FAD
S11308005695479537952795AAC06898709A699820
S1130810719A1092810010928000109282001092BE
S11308208500109284001092890010928800109222
S11308308B0010928A0010928D0010928C001092FE
S11308408700109286000E94D9038823E1F36099FF
S1130850FECF80918100887F8160809381000E9417
S1130860D9038823E1F36099FECFC091840080917D
S11308708500D0E0D82B0E94D9038823E1F3609946
S1130880FECFE0908400F09085000E94D903882375
S1130890E1F36099FECFC0908400D09085000E945F
S11308A0D9038823E1F36099FECF209184008091DD
S11308B0850030E0382B609BFECF8091840040910E
S11308C0850090E0942B40918100487F4093810003
S11308D06898709869987198821B930B8C01000F2B
S11308E0111FDC01B695A795B695A795AD01400FEC
S11308F0511F4C175D0708F43FC0C8018A1B9B0BAE
S1130900C817D907C8F1EE2DF0E0FF29DF01AC1BB1
S1130910BD0B4A175B0780F1A817B90768F16C2D66
S113092070E07D29DB01AE1BBF0B4A175B0720F18A
S1130930A817B90708F1F901E61BF70B4E175F0773
S1130940D8F0E817F907C0F0220F331F96E0369568
S113095027959A95E1F72F5F3F4F369527952150BC
S113096031093093C5002093C4008091C000826097
S11309708093C00081E001C080E0DF91CF911F919E
S11309800F91FF90EF90DF90CF900895CF93C82FF1
S11309901092C1008091C6008093C20080E48093CD
S11309A0C00086E08093C2001092C5001092C4007B
S11309B060E070E0CB010E94E003882321F1809184
S11309C0C00080628093C0008091C1008B7F8093BF
S11309D0C1009091C1008C2F8470892B8093C10039
S11309E08C2F88738093C2009091C2008C2F8370E7
S11309F0880F892B8093C2008091C1008861809305
S1130A00C10081E001C080E0CF9108959091C000C1
S1130A1095FFFCCF8093C6000895CF93DF93EC013C
S1130A208991882319F00E940605FACFDF91CF91AE
S1130A3008952F923F924F925F926F927F928F927E
S1130A409F92AF92BF92CF92DF92EF92FF920F9359
S1130A501F93CF93DF93CDB7DEB72C970FB6F894DF
S1130A60DEBF0FBECDBFFE01B196A190B1908F0144
S1130A7020E090E0ABE06A2E2E016CE0460E511CA3
S1130A80B0E37B2E8AE0C82ED12CE12CF12CF501A9
S1130A908081882309F4C3C1853219F0213009F01B
S1130AA049C045017FEF871A970AF5012181243651
S1130AB009F446C048F4283509F4F4C0233689F013
S1130AC0203309F096C159C12337D9F018F42C36D4
S1130AD069F18FC1253709F498C0283709F4E2C0B9
S1130AE088C1913029F48CE60E94060583E688C10A
S1130AF05801F2E0AF0EB11CF80180810E94060596
S1130B003AC1913029F48CE60E94060583E778C146
S1130B10F801A080B1800E5F1F4FF50181915F0144
S1130B20882309F46FC10E940605F7CF913009F0BC
S1130B306EC18CE60E940605450120E090E06AC182
S1130B40FE0131967192E415F505E1F71C86580112
S1130B50992361F1F4E0AF0EB11CF8016081718159
S1130B608281938197FF09C09095809570956195D6
S1130B707F4F8F4F9F4F01E001C000E01AE0222415
S1130B802394312C2C0E3D1E210E311CA7019601FD
S1130B900E947207605DF1016083B901CA011150BE
S1130BA0611571058105910551F71FC0F2E0AF0E83
S1130BB0B11CF8018081918197FF05C091958195C1
S1130BC0910901E001C000E01AE0E1E0F0E0EC0F7F
S1130BD0FD1FE10FF11D6AE070E00E943C07805D9B
S1130BE08083CB011150009781F7002319F08DE227
S1130BF00E9406051F5F611608F4162D81E090E03F
S1130C008C0F9D1F810F911DB4C0FE01319671920E
S1130C10E415F505E1F71C865801992301F1F4E088
S1130C20AF0EB11CF8016081718182819381EAE089
S1130C303E2E01E010E00C0F1D1F030D111DA70136
S1130C4096010E945007605DF8016083B901CA01F2
S1130C503A94611571058105910559F718C0F2E0C0
S1130C60AF0EB11CF801808191816AE0362EE1E07B
S1130C70F0E0EC0FFD1FE30DF11D6AE070E00E944F
S1130C802807805D80833A94CB01009781F73394E1
S1130C90631408F4362C81E090E08C0F9D1F830DC3
S1130CA0911D67C0FE0131967192E415F505E1F7D7
S1130CB01C865801992369F1F4E0AF0EB11CF801C8
S1130CC080819181A281B3813AE00097A105B105A9
S1130CD009F445C0482F4F70E32FF0E04A3010F478
S1130CE0405D07C0283711F451E601C051E44A5071
S1130CF0450F61E070E06C0F7D1FE60FF71F408326
S1130D0054E0B695A795979587955A95D1F73150A4
S1130D10DCCF72E0A70EB11CF801808191813AE02A
S1130D200097E9F0482F4F70E32FF0E04A3010F4B9
S1130D30405D07C0283711F451E601C051E44A5020
S1130D40450F61E070E06C0F7D1FE60FF71F4083D5
S1130D5044E0969587954A95E1F73150E1CF3F5F9E
S1130D60631608F4362D81E090E08C0F9D1F830FED
S1130D70911D0E940D05850145C0913029F48CE632
S1130D800E94060580E33CC0F501828190ED980F36
S1130D909A3028F58F70938120ED290F2A3020F0A6
S1130DA0F3E0AF0EB11C07C08295807F9F70892B42
S1130DB024E0A20EB11C982F9F7082958F706AE078
S1130DC0869F900D11249C3008F09BE02BE0622E4E
S1130DD0691A450172E0871A910821E0AFCE4501F6
S1130DE082E0880E911C80E30E940605F501828151
S1130DF007C0913019F48CE60E940605F501818143
S1130E000E94060520E090E08BE0682E03C04501B7
S1130E1021E091E05401FFEFAF1ABF0A38CE2C96BF
S1130E200FB6F894DEBF0FBECDBFDF91CF911F91F7
S1130E300F91FF90EF90DF90CF90BF90AF909F9075
S1130E408F907F906F905F904F903F902F90089578
S1130E50AA1BBB1B51E107C0AA1FBB1FA617B707DC
S1130E6010F0A61BB70B881F991F5A95A9F78095F8
S1130E709095BC01CD01089597FB072E16F40094BC
S1130E8007D077FD09D00E94280707FC05D03EF45F
S1130E90909581959F4F0895709561957F4F089522
S1130EA0A1E21A2EAA1BBB1BFD010DC0AA1FBB1F6A
S1130EB0EE1FFF1FA217B307E407F50720F0A21BDC
S1130EC0B30BE40BF50B661F771F881F991F1A9449
S1130ED069F760957095809590959B01AC01BD0173
S1130EE0CF010895052E97FB1EF400940E948907F4
S1130EF057FD07D00E94500707FC03D04EF40C9412
S1130F00890750954095309521953F4F4F4F5F4F3E
S1130F10089590958095709561957F4F8F4F9F4F61
S1090F200895F894FFCFD0
S1130F260D0A3D3D3D3D3D3D3D3D3D3D3D3D3D3D4A
S1130F363D3D3D3D3D3D3D3D3D3D3D3D3D3D3D3DD7
S1130F463D3D3D3D3D3D3D3D3D3D3D3D3D3D3D3DC7
S1130F563D0D0A003D202020202020202020202096
S1130F662020202020202020202020202020202077
S1130F762020202020202020202020202020202067
S1130F8620203D0D0A003D202020444F4D4F4D4169
S1130F9654494B202043414E2D52533233322020A4
S1130FA67665722E312E3020202863292032303186
S10B0FB6322020203D0D0A0049
S9030000FC
